:020000040800F2
:10000000500B002001010008450D0008290C0008D4
:100010000D0D0008D7090008B71B000800000000FC
:10002000000000000000000000000000591400085B
:10003000DB09000800000000411300086D150008EE
:100040001B0100081B0100081B0100081B01000820
:100050001B0100081B0100081B0100081B01000810
:100060001B0100081B010008DD0900081B01000836
:100070001B0100081B0100081B0100081B010008F0
:100080001B0100081B0100081B0100081B010008E0
:100090001B0100081B0100081B0100081B010008D0
:1000A0001B0100081B0100081B0100081B010008C0
:1000B0001B010008D11500081B0100081B010008E6
:1000C0001B0100081B0100081B0100081B010008A0
:1000D0001B010008951900081B0100081B010008FE
:1000E0001B0100081B0100081B010008DFF80CD0F1
:1000F00000F020FC00480047295D0008500B00205C
:100100000648804706480047FEE7FEE7FEE7FEE7B1
:10011000FEE7FEE7FEE7FEE7FEE7FEE771150008F3
:10012000ED00000840EA01039B0703D009E008C97D
:10013000121F08C0042AFAD203E011F8013B00F8AC
:10014000013B521EF9D27047D2B201E000F8012BF8
:10015000491EFBD270470022F6E710B513460A4647
:1001600004461946FFF7F0FF204610BD034611F87C
:10017000012B00F8012B002AF9D118467047F0B482
:1001800080EA0102D40F4200B2EB410F02D20246D4
:10019000084611464A0042D0C30DDDB2C1F3C75232
:1001A000AD1A202D35DAC1F3160141F4000204B175
:1001B0005242C5F1200602FA06F12A411044B3EB7F
:1001C000D05F23D0C4B1012DA0EBC35009DCF0BC3B
:1001D0004FF0004202EAC352DBB200F5000000F02B
:1001E0007EBA400000F1807000EBC350A0F1807037
:1001F00040EAD170490009E0490841EAC071A0EB2A
:10020000C35000F50000400800EBC350F0BC00F004
:100210005DBA6142012202EB4101001BF6E7F0BC2E
:10022000704781F00041AAE780F00040A7E780EA2C
:10023000010210B502F00043400022D04A001FD056
:10024000010E01EB1261C0F35600C2F3560240F4F6
:10025000000042F40002A0FB022000047F391404D5
:1002600000D0401C50EA124001D44000491EC2B2E6
:100270000C0604EBD010401C4008802A02D003E09A
:10028000002010BD20F00100002900DA00201843F2
:1002900010BD2DE9FE4F804681EA0300C00F0C46D9
:1002A000009021F0004123F00045B8EB0200A94185
:1002B00005D24046214690461C460B46024623F096
:1002C0000040104347D0270DC7F30A00C3F30A517B
:1002D0000290401A019040286BDAC3F3130040F4F7
:1002E000801B0098924620B10023D2EB030A63EBF7
:1002F0000B0B01985946C0F14002504600F0C5F979
:1003000006460D4650465946019A00F0CDF910EBCD
:1003100008006141002487EA115284EAE7731A4316
:1003200040D0009A62B3019A012A4FEA075215DCC5
:10033000001B61EB02014FF0004202EA0752CDE9D7
:100340000042001C41F5801132462B4600F004FAB1
:1003500003B0BDE8F08F40462146F9E7001B61EB92
:100360000201001C41F5801300185B412018A2F522
:10037000001747EB030140EAD570B6196D4111E053
:100380006D084FEA360645EAC0754FEA0752001B72
:1003900061EB0201001C41F5801149084FEA300071
:1003A0000019514132462B4603B0BDE8F04F00F032
:1003B000C4B90098012240000023D0EB020263EB95
:1003C000E073009821464FEAE074B8EB000061EB5F
:1003D0000401E9E783F000435BE781F0004158E75F
:1003E0002DE9FE4F81EA030404F0004421F00041AE
:1003F00000944FF0000B23F0004350EA01045ED05C
:1004000052EA03045BD0C3F30A54C1F30A552C44E7
:10041000A4F2F3340194A0FB0254C1F3130141F49C
:100420008011C3F3130343F4801301FB024400FB68
:10043000034E840A970A44EA815447EA8357A4FB8F
:10044000076802958D0A05FB07854FEA932C04FB8C
:100450000C542705029D4FEA065847EA1637B5EBBC
:1004600008056EEB070C870E920E47EA811742EAE9
:100470008312A7FB0201B6EB0B0164EB00042B0D0A
:1004800043EA0C335E1844EB1C50DA465146E7FB56
:100490000201C5F313044FEA0B3343EA14534FEA46
:1004A0000432019C43EA0603A4F10C040294009C6C
:1004B000CDE900B400F050F903B0BDE8F08F0020A2
:1004C0000146F9E7C10F80EAE0700844CA079623A5
:1004D000002100F004B996230022114600F0FFB875
:1004E0000EB5C10F80EAE0700844CA07002140F24F
:1004F00033438DE80E000A460B4600F02DF903B099
:1005000000BD0EB540F2334102910021CDE900114A
:100510000A460B4600F020F903B000BD00F000428F
:1005200020F00040C10DC0F3160040F400007F2908
:1005300001DA00207047962903DCC1F19601C8401A
:1005400001E096398840002AF4D04042704720F0FC
:100550000040C10DC0F3160040F400007F2901DA0D
:1005600000207047962903DCC1F19601C84070470E
:1005700096398840704700F0004230F000400AD0C1
:10058000C10D01F56071C0F3160042EA0151C208C5
:1005900040071143704700200146704701F00043B7
:1005A00030B421F0004150EA010206D00A0DA2F554
:1005B0006072C1F31301002A02DC30BC00207047D6
:1005C000440F44EAC104C100E01830BC00EBC25043
:1005D00000F07CB8002801DBC0F10040002901DBFD
:1005E000C1F1004181427047002801DBC0F10040A9
:1005F000002901DBC1F100418842704730B50B464C
:10060000014600202022012409E021FA02F59D4242
:1006100005D303FA02F5491B04FA02F52844151E16
:10062000A2F10102F1DC30BD2DE9F05F05460020AA
:1006300092469B4688460646814640241BE0284653
:1006400041464746224600F087F953465A46C01AAB
:10065000914110D311461846224600F016F82D1A83
:1006600067EB01084F4622460120002100F00DF8FB
:1006700017EB00094E41201EA4F10104DFDC4846BF
:1006800031462A464346BDE8F09F202A04DB203A43
:1006900000FA02F1002070479140C2F1200320FAD5
:1006A00003F3194390407047202A06DBCB17203A0A
:1006B00041FA02F043EAE07306E041FA02F3D04067
:1006C000C2F1200291400843194670470029A8BF93
:1006D0007047401C490008BF20F00100704710B46B
:1006E000B0FA80FC00FA0CF050EA010404BF10BC20
:1006F000704749B1CCF1200421FA04F411FA0CF14D
:1007000018BF012121430843A3EB0C01CB1D4FEA85
:1007100000614FEA102042BF002010BC704700EB80
:10072000C35010440029A4BF10BC7047401C4900AE
:1007300008BF20F0010010BC704710B5141E73F103
:10074000000408DA401C41F1000192185B411A4391
:1007500001D120F0010010BD2DE9F04D92469B46DD
:1007600011B1B1FA81F202E0B0FA80F22032904683
:10077000FFF78BFF04460F4640EA0A0041EA0B01EF
:1007800053465A46084313D0114653EA010019D084
:10079000C8F14002504600F0DFF805460E465046CC
:1007A00059464246FFF771FF084305D0012004E097
:1007B00020463946BDE8F08D0020054346EAE07644
:1007C0002C4337430A986305E40AA0EB0800002293
:1007D000FD0A44EA47540A3002D500200146E9E701
:1007E000010510196941DDE9084500196941BDE8B5
:1007F000F04DA2E72DE9F04D81EA030404F0004B2F
:1008000021F0004514464FF0000A23F0004150EA61
:10081000050220D054EA01021DD0C5F30A57024652
:10082000C5F31303C1F31300C1F30A5640F4801556
:1008300043F48013A7EB0608101BD64608F2FD38D8
:1008400073EB050002D308F1010801E092185B4147
:10085000B8F1000F03DA00200146BDE8F08D00205A
:100860004FF48011064684460EE0171B73EB050714
:1008700005D3121B63EB050306434CEA010C490840
:100880004FEA300092185B4150EA0107EDD152EA7D
:10089000030012D082EA040083EA0501084305D070
:1008A000101BAB4106D20122002306E000224FF0CC
:1008B000004302E06FF0010253101AEB06004CEB0C
:1008C000085110EB0A0041EB0B01BDE8F04DFFF7BA
:1008D00034BFC1F30A52C1F3130140F2FF3341F4B4
:1008E00080119A4202DA00200146704740F23343F9
:1008F0009A42A2F2334202DC524200F02DB8FFF7D6
:10090000C4BE000030B5041E71F1000404DB4FF0DA
:100910000044404264EB0101141E73F1000405DB46
:100920001C464FF00043524263EB0403994208BF58
:10093000904230BD064C074D06E0E06840F00103F0
:1009400094E8070098471034AC42F6D3FFF7D2FB87
:10095000C46E0008E46E0008202A04DB203A21FA65
:1009600002F00021704721FA02F3D040C2F12002C8
:10097000914008431946704770B58D1810F8014B27
:1009800014F0030201D110F8012B231106D110F845
:10099000013B03E010F8016B01F8016B521EF9D125
:1009A000ABB110F8012B04F00C048A1A0C2C03D004
:1009B000A2EB84129B1C08E010F8014BA2EB04226E
:1009C000F8E712F8014B01F8014B5B1EF9D5A9427B
:1009D000D4D3002070BD00BFFEE7704710B50120E2
:1009E00002490870102000F003F810BD4C030020ED
:1009F0000149086070470000140401402DE9F041EE
:100A0000024600250026002000230024002791F83C
:100A100003C00CF00F0591F803C00CF0100CBCF1F2
:100A2000000F03D091F802C04CEA050591F800C010
:100A3000BCF1000F31D0146800202BE04FF0010C06
:100A40000CFA00F3B1F800C00CEA03069E4220D174
:100A500083004FF00F0C0CFA03F7BC4305FA03FCBC
:100A60004CEA040491F803C0BCF1280F06D14FF002
:100A7000010C0CFA00FCC2F814C00AE091F803C0A3
:100A8000BCF1480F05D14FF0010C0CFA00FCC2F884
:100A900010C0401C0828D1D31460B1F800C0BCF1CC
:100AA000FF0F34DD546800202EE000F1080C4FF0F9
:100AB000010808FA0CF3B1F800C00CEA03069E42E4
:100AC00021D183004FF00F0C0CFA03F7BC4305FA59
:100AD00003FC4CEA040491F803C0BCF1280F05D1D3
:100AE00000F1080C08FA0CF8C2F8148091F803C061
:100AF000BCF1480F07D100F1080C4FF0010808FACB
:100B00000CF8C2F81080401C0828CED35460BDE811
:100B1000F0810246002093680B400BB1012000E0F9
:100B20000020704741617047016170470AB101615F
:100B300000E041617047000010B5044614B1012087
:100B40003649087035480078002843D04FF40061DA
:100B50003348FFF7DEFF98B110213248FFF7D9FF85
:100B600070B120212F48FFF7D4FF48B140212D4814
:100B7000FFF7CFFF20B180212A48FFF7CAFF48BB0B
:100B80000A2004F029FF0020244908704FF4006176
:100B90002348FFF7BEFF08B9012010BD10212148EE
:100BA000FFF7B7FF08B90220F7E720211D48FFF73C
:100BB000B0FF08B90320F0E740211A48FFF7A9FF6A
:100BC00008B90420E9E780211648FFF7A2FF10BB0F
:100BD0000520E2E74FF400611148FFF79AFF012872
:100BE00019D110210F48FFF794FF012813D12021BC
:100BF0000C48FFF78EFF01280DD140210948FFF76F
:100C000088FF012807D180210648FFF782FF0128CD
:100C100001D1024908700020BFE700002C0000202D
:100C200000080140000C014000BFFEE710B54FF482
:100C3000A06000F0C1F800F03BF800F05DF94FF45F
:100C4000E13005F071FC04F0A5FE00F027FB00F098
:100C50005FF800F007F84FF4E1514FF4C87000F06E
:100C60008DFD10BD08B501210C2000F07BFBF020AC
:100C7000ADF8000048208DF8030003208DF8020035
:100C800069460948FFF7BAFE4FF40060ADF800006E
:100C900048208DF8030003208DF8020069460348C0
:100CA000FFF7ACFE08BD0000000C01400008014049
:100CB00008B50121102000F055FB4FF40050ADF8AD
:100CC000000010208DF8030003208DF80200694613
:100CD0000448FFF793FE4FF400510248FFF722FF4C
:100CE00008BD00000010014070B504460E461546D0
:100CF00031462068FFF76EFC01D8266005E02946E2
:100D00002068FFF771FC00D8256070BD00BFFEE7CA
:100D100008B50121082000F025FB0220ADF80000F5
:100D200010208DF8030003208DF802006946044866
:100D3000FFF764FE02210248FFF7F4FE08BD000041
:100D4000000C01407047000070B5002100230F2205
:100D5000C47804B3154C246804F4E064C4F5E0647A
:100D6000210AC1F10403CA40447804FA03F18478EB
:100D70001440214309010E4C0678A155047804F073
:100D80001F050124AC4005786D11AD0005F1E0258B
:100D9000C5F8004109E0047804F01F050124AC40C7
:100DA000044D0678761145F8264070BD0CED00E044
:100DB00000E400E080E100E002490143024A1160E2
:100DC000704700000000FA050CED00E070B500244B
:100DD0000EE00021204600F0F0F8002504E000209D
:100DE00000F0D7F9681CC5B2802DF8DB601CC4B2D6
:100DF000082CEEDB70BD000008B50121082000F0D2
:100E0000B1FA14208DF8030003208DF802004FF48E
:100E10008070ADF8000069460A48FFF7EFFD4FF417
:100E20000070ADF8000069460648FFF7E7FD0122B3
:100E300011020448FFF77AFE012251020148FFF730
:100E400075FE08BD000C014070B50546002415E094
:100E50008020204100EA05024FF400710E48FFF7A0
:100E600065FE012211020C48FFF760FE00224FF4DC
:100E700080710948FFF75AFE601CC4B2082CE7DBFA
:100E8000012211020448FFF751FE00224FF4807145
:100E90000148FFF74BFE70BD000C014010B5012268
:100EA00051020A48FFF742FE012211020748FFF7EC
:100EB0003DFE00224FF400710448FFF737FE002288
:100EC0004FF480710148FFF731FE10BD000C014066
:100ED00010B500224FF400710648FFF727FE0122EB
:100EE00011020448FFF722FE012251020148FFF7D8
:100EF0001DFE10BD000C014070B5002406E0002569
:100F000000E06D1CB5F57A7FFBD3641CB4F57A7FE5
:100F1000F5D3FFF771FFAE2000F02BF9D52000F0DC
:100F200028F9802000F025F9A82000F022F93F20C0
:100F300000F01FF9D32000F01CF9002000F019F98F
:100F4000402000F016F9A12000F013F9C82000F0AD
:100F500010F9DA2000F00DF9122000F00AF98120D2
:100F600000F007F9CF2000F004F9D92000F001F9D2
:100F7000F12000F0FEF8DB2000F0FBF8302000F05C
:100F8000F8F8A42000F0F5F8A62000F0F2F88D2083
:100F900000F0EFF8142000F0ECF8AF2000F0E9F8D2
:100FA000FFF714FF70BD10B50246012000E050436A
:100FB0000B1EA1F10101FAD110BD70B505460C461A
:100FC00045F0B00000F0D5F8102141EA141000F00F
:100FD000D0F804F00F0000F0CCF870BD2DE9F0411E
:100FE00005460E461746721ED206110E6A1E52069E
:100FF000100EFFF7E2FF002409E0A7F12001134AD9
:1010000002EB0111085D00F0C4F8601CC4B2082CAA
:10101000F3DB721ED206110E6A1E012303EB42029D
:10102000D0B2FFF7CAFF00240BE0A7F12001074A66
:1010300002EB011204F10801505C00F0AAF8601CF8
:10104000C4B2082CF1DBBDE8F0810000D4680008D0
:101050002DE9FF4F83B00C4615461E46DDF8409043
:101060002846FFF75BFA07463846FFF72BFA834618
:101070002946FFF7D9F8804600212846FFF7B4FA41
:101080000CD82B2221460398FFF7A8FF601CC1B2A1
:1010900033463A46039800F036F80CE07F422D22A2
:1010A00021460398FFF79AFF601CC1B233463A46C7
:1010B000039800F028F800214046FFF78BFA01D290
:1010C00088F0004849460A20FFF76DFF0190FFF7BE
:1010D00002FA41460290FFF7AAF88346FFF71EFA8C
:1010E0008246A019401CC1B22E220398FFF776FF5A
:1010F000A019801CC1B24B465246039800F003F879
:1011000007B0BDE8F08F2DE9F04780460E46174640
:101110001D46002415E0281B411E0A20FFF743FF4F
:10112000B7FBF0F00A21B0FBF1F201FB120000F175
:1011300030093019C1B24A464046FFF74FFF601CE4
:10114000C4B2AC42E7DBBDE8F0872DE9F0410746C9
:101150000E461546002407E02A5D3019C1B2384614
:10116000FFF73CFF601CC4B2285D0028F4D1BDE845
:10117000F08110B50446FFF791FE7820FFF764FE7A
:101180000020FFF761FE2046FFF75EFEFFF7A0FE9E
:1011900010BD10B50446FFF781FE7820FFF754FE1E
:1011A0004020FFF751FE2046FFF74EFEFFF790FE6E
:1011B00010BD2DE9FC5F04460D46164620696061AE
:1011C000E068206131462846FFF72BF8E0604FF0D9
:1011D00080406169FFF72BF88246E168FFF724F849
:1011E00081466169FEF7CBFF07463946A068FFF7E5
:1011F0001EF80190E1686068FFF719F88346D4E9AA
:101200000301FFF70EF800902168FFF710F88246FF
:101210005946FEF7B4FF81460199FEF7B0FF8046BC
:101220004146E069FEF7ABFFE06104F11C00D4E940
:101230000821FFF759FD94F8280090B14FF07E5037
:10124000E16AFEF7EEFF8346E169FEF7F0FF8146B3
:10125000E16AA069FEF7EBFF82464946FEF78FFF81
:10126000E061E069A061E069BDE8FC9F70B5DDE97F
:1012700004450160426083600026C66006614661E5
:101280008661C661046284F00046466280F8285098
:10129000014EC66270BD00009A99993E00B589B0B2
:1012A0000121084600F04EF80121042000F05AF810
:1012B00018208DF823000120ADF8200003208DF8C0
:1012C000220008A91948FFF799FB4FF0804000F071
:1012D000B0FA0020ADF81A00ADF8160041F61F4034
:1012E000ADF818000020ADF814008DF81C0005A919
:1012F0004FF0804000F0FCFA01A800F0EDFA602009
:10130000ADF804000020ADF80C000120ADF8060097
:101310000020ADF80A0001A94FF0804000F090FADB
:101320000121880700F05FFA09B000BD0008014004
:1013300010B5044621464FF0804000F0D7FA10BDAA
:101340007047000029B1064AD2690243044BDA61B2
:1013500004E0034AD2698243014BDA61704700001E
:101360000010024029B1064A92690243044B9A6177
:1013700004E0034A92698243014B9A61704700007E
:101380000010024030B500210022002400232D4D22
:101390006D6805F00C0121B1042905D0082923D17D
:1013A00005E0294D056022E0274D05601FE0254D31
:1013B0006D6805F47012234D6D6805F480340225C4
:1013C00005EB92421CB9214D554305600BE01D4DC4
:1013D0006D6805F400351DB11C4D5543056002E0F4
:1013E000194D5543056002E0174D056000BF00BF71
:1013F000144D6D6805F0F0010909154D6B5C056829
:10140000DD4045600F4D6D6805F4E061090A104D3F
:101410006B5C4568DD4085600A4D6D6805F4605180
:10142000C90A0B4D6B5C4568DD40C560054D6D68B4
:1014300005F44041890B074D6B5CC568B5FBF3F5BE
:10144000056130BD0010024000127A0000093D0025
:101450001400002024000020704710B500F002F8AE
:1014600010BD00000CB500200190009033480068CA
:1014700040F480303149086000BF3048006800F413
:10148000003000900198401C0190009818B9019814
:10149000B0F5A06FF1D12948006800F4003010B118
:1014A0000120009001E0002000900098012843D125
:1014B0002348006840F01000214908600846006891
:1014C00020F0030008600846006840F00200086051
:1014D0001A4840681949486008464068486008460C
:1014E000406840F4806048600846406820F47C1002
:1014F00048600846406840F4E810486008460068C4
:1015000040F08070086000BF0C48006800F0007078
:101510000028F9D00948406820F0030007494860D6
:101520000846406840F00200486000BF0348406839
:1015300000F00C000828F9D10CBD0000001002409A
:1015400000200240042808D14FF0E021096941F051
:1015500004014FF0E022116107E04FF0E02109693A
:1015600021F004014FF0E022116170477047000044
:1015700010B51348006840F00100114908600846A2
:101580004068104908400E494860084600680E4906
:1015900008400B4908600846006820F48020086075
:1015A0000846406820F4FE0048604FF41F00886041
:1015B000FFF753FF4FF000600449086010BD0000C2
:1015C000001002400000FFF8FFFFF6FE08ED00E00B
:1015D00070B50121574800F012F900287ED0564816
:1015E0000078401C5449087054480078052804D1FC
:1015F00053480068401C524908605048007806284B
:1016000004D150480068401C4E4908604E480068AC
:10161000401C4D4908604D48007808B9002008601A
:101620004B480068012802D100204549086049481C
:101630000068012802D1002042490860464802683B
:10164000464801684648FFF7B4FD4549C869454921
:10165000FEF795FD4449086044480078012808D108
:1016600008460068FEF773FF84B22046FFF760FE6D
:1016700002E00020FFF75CFE30480078042807D124
:101680003A480078012803D140F26E50FFF750FE2F
:101690002B480068B0F5DC7F0BD928480078052876
:1016A00007D132480078012803D140F68C20FFF79B
:1016B0003FFE23480068B0F5E87F02D901202449A5
:1016C000086020480068B0F5C87F0DD91B48007835
:1016D000062809D125480078012800E029E003D137
:1016E00040F68C20FFF724FE16480068B0F5D27F44
:1016F00002D30120174908601B480068FEF73BFF32
:10170000044622460B461AA003F0CAFC0A48007899
:1017100032280ADD1848006808B9012000E00020DE
:10172000154908600020044908700121014800F0B3
:1017300057F870BD000400403C000020620000200B
:1017400040000020440000204800002078000020D5
:1017500050000020540000205003002070000020A2
:101760002005002000009644680000206000002052
:10177000252E32660D0A0000B40122427FB50546CF
:101780000C4601210220FFF7DDFD681E80B2ADF896
:101790000800601E80B2ADF804000020ADF80A0019
:1017A000ADF8060001A90D4800F0A2F8012211468B
:1017B0000A4800F035F81D208DF8000001208DF852
:1017C00001008DF802008DF803006846FFF7BCFAAF
:1017D0000021024800F007F87FBD0000000400402F
:1017E000CA430282704721B1028842F0010202809E
:1017F00004E002884FF6FE731A400280704730B54D
:101800000246002000230024158A05EA0103958979
:1018100005EA010413B10CB1012000E0002030BD45
:101820001AB183890B43838102E083898B438381CF
:10183000704701894FF6F87211400181704700002E
:1018400070B5002400220023058C4FF6FE7635404B
:101850000584028C8388048B4FF68F752C40B51E4F
:101860002C400D882C43751E2A400D892A434D8833
:101870002A43144DA8420BD0134DA84208D0134D53
:10188000A84205D0124DA84202D0124DA84213D151
:101890004FF6F7752A404D892A434FF6FB752A40CB
:1018A0008D882A434FF6FF652B404FF6FF552B409E
:1018B0008D892B43CD892B4383800483CD888586F6
:1018C000028470BD002C0140003401400040014002
:1018D0000044014000480140002101804180818096
:1018E000C180018141818181C181704781867047BA
:1018F000002202881D4B98420ED01D4B98420BD0FF
:10190000B0F1804F08D01B4B984205D01A4B98423B
:1019100002D01A4B984204D14FF68F731A404B886D
:101920001A43174B984207D0164B984204D04FF6F3
:10193000FF431A40CB881A4302808B8883850B882B
:1019400003850A4B98420BD0094B984208D00E4BA6
:10195000984205D00D4B984202D00D4B984201D1D0
:101960000B7A03860123838270470000002C01401C
:10197000003401400004004000080040000C00401A
:1019800000100040001400400040014000440140AD
:101990000048014010B540F225511D4800F04AF8BA
:1019A00010B31B4800F002F9C4B21A48008800F4D2
:1019B0000040C8B91748008800F4804060B10A2C84
:1019C00003D000201349088020E01248008840F42A
:1019D00000401049088019E00D2C06D10D48008800
:1019E00040F480400B49088010E00A480088C0F3AA
:1019F0000D0009490C5407480088401C054908801F
:101A000008460088C72801DD0020088010BD0000BE
:101A1000003801405C0000209003002021B1828941
:101A200042F40052828104E082894DF6FF731A402D
:101A30008281704770B502460024002300250020F3
:101A400040F66A16B14200D100BFC1F3421501F061
:101A50001F03012606FA03F3012D02D196893340B4
:101A600006E0022D02D1168A334001E0968A334007
:101A70000C12012606FA04F41688344013B10CB196
:101A8000012000E0002070BDF0B5034600240026D0
:101A90000025002040F66A17B94200D100BF184661
:101AA000C1F3421401F01F06012707FA06F5012CC5
:101AB00001D10C3004E0022C01D1103000E01430D0
:101AC0001AB107682F43076002E00768AF43076059
:101AD000F0BD00002DE9F04786B005460E46002413
:101AE000A24600BFA1460027B08900B100BF2F4623
:101AF0002C8A4CF6FF700440F08804432C82AC8999
:101B00004EF6F3100440B0883189084371890843C8
:101B10000443AC81AC8A4FF6FF400440B0890443D3
:101B2000AC8201A8FFF72EFC1F48874202D1DDF8E6
:101B300010A001E0DDF80CA0A88900F4004040B13D
:101B40000AEBCA0000EB0A1031684900B0FBF1F85B
:101B500007E00AEBCA0000EB0A1031688900B0FB0D
:101B6000F1F86420B8FBF0F004012009642101FBC6
:101B70001089A88900F4004040B1322000EBC90070
:101B8000B0FBF1F000F00700044308E0322000EB66
:101B900009106421B0FBF1F000F00F0004432C8128
:101BA00006B0BDE8F0870000003801400146888893
:101BB000C0F30800704700BFFEE700002DE9FC41BC
:101BC00006460F460024DA20855D012D03D0022D44
:101BD00001D0032D2ED16B4601AA0121304600F021
:101BE000D7F904460198B0F57F0F03D80098B0F5F7
:101BF0007F0F1FD9F4B92FB11049304602F09AFA7D
:101C0000044617E00422FF21304601F01CF804438B
:101C100000227021304601F016F804430022FF2113
:101C2000304601F010F8044300228021304601F0D4
:101C30000AF804432046BDE8FC810000770100203B
:101C4000F8B506460F460024002500BF01220B21EF
:101C5000304600F0F8FF044600220B21304600F029
:101C6000F2FF04436A461321304600F01AFC044395
:101C7000681CC5B29DF8000000F0070018B1032DE4
:101C800001DA002CE2D0032D01DB6FF00B042046BB
:101C9000F8BD000070B592B0054600240123FE2275
:101CA0008921284600F0A6FF04462CB9002288218D
:101CB000284600F0C8FF04460021F02041554FF4AB
:101CC0007A70A5F852014FF4C870A5F854015A482B
:101CD000C5F858015948C5F8D400296202A9284618
:101CE00000F0BEF8044654B900208DF808008DF8C5
:101CF0000900402202A905F11000FEF713FA642042
:101D000005F59A7528804FF4617068804FF4FA7079
:101D1000A8804FF42060288101202877A5F59A75C6
:101D200001228021284600F08EFF04430122FF217A
:101D3000284600F088FF044300221146284600F0A0
:101D400082FF044301AA9121284600F0AAFB044324
:101D50009DF8040085F83A0101220021284600F090
:101D600072FF04430022FF21284600F06CFF044369
:101D700000228021284600F066FF0443002609E087
:101D800034B9B1B20122284600F0C6FC044300E099
:101D900002E0761C062EF3DB00BF2CB900220221E4
:101DA000284600F0B9FC04462CB90022032128463D
:101DB00000F0B2FC04462CB900220421284600F0B1
:101DC000ABFC04462CB900220521284600F0A4FCF7
:101DD000044634B94FF490120021284600F0FDFC6F
:101DE000044634B94FF480420121284600F0F5FC46
:101DF000044634B94FF40C120221284600F0EDFCE1
:101E000004462CB900220321284600F0E6FC0446D3
:101E10005CB9FF2085F83001FF220121284600F03F
:101E200012FF0446012085F8320114B9002185F81B
:101E30001511204612B070BD856B0100A470090019
:101E400070B504460D4600262946204601F04EFA9C
:101E50000646304670BD02460020137C0B7070476A
:101E60002DE9F04107460D46002429463846FFF784
:101E7000F2FF04462CB905F10801384600F051F88C
:101E800004460CB9002028732CB905F1100138461E
:101E900000F085FA04462CB905F11401384600F02B
:101EA00037F90446E4B9002617E04CB905F12400DF
:101EB00000EB8602B1B2384600F099F8044300E026
:101EC0000DE044B905F118008219B1B2384600F0AE
:101ED00080F8044300E002E0761C062EE5DB00BF3C
:101EE0002CB905F13C01384600F034FA044624B917
:101EF000291D384600F001F904462046BDE8F0816E
:101F000070B506460C46002522460921304600F0F1
:101F1000C8FA05461DB9207800F001002070284657
:101F200070BD7CB506460C46002501AAF821304656
:101F300000F0E3FA05462DB96A460421304600F068
:101F4000C6FA054655B9BDF8040028B1BDF804101D
:101F50000098B0FBF1F020602168B16128467CBD9B
:101F6000F8B505460C4600266A461321284600F0BF
:101F700098FA06469DF8000000F0070020609DF8E2
:101F8000000000F0180008B16FF005063046F8BDFB
:101F90002DE9F8430746884614461D4600266A4642
:101FA0000E21384600F0A9FA0646BDF800000005EB
:101FB000C008206056B96A460C21384600F09DFAE8
:101FC0000646BDF800000005C00828603046BDE8A0
:101FD000F88330B503460020062903DB001F0025E7
:101FE000157003E003F128056C5C147030BD2DE919
:101FF000F84305460E4617464FF00008C146062E28
:102000002FD2DFE806F00307161A1E1F6C6B4FF085
:10201000000929E06A464421284600F06EFA80460D
:10202000B8F1000F02D1BDF8000044024FF00109E1
:102030001AE0EC6B4FF0000916E02C6C4FF0000931
:1020400012E000BF6A466421284600F056FA804636
:10205000B8F1000F02D1BDF8000044024FF00009B2
:1020600002E06FF0030800BF00BFB8F1000F16D107
:10207000B9F1010F12D144B905F1340050F82640EE
:102080003C6000210C38815509E03C6005F13400CA
:1020900040F8264001210C38815500E03C60404664
:1020A000BDE8F8832DE9FC4105460C460026DA2000
:1020B000475D042F0DD169462846FFF751FF0646BC
:1020C0000098042802D10120207013E00020207025
:1020D00010E001AA1421284600F0E3F906464EB9A3
:1020E0009DF8040000F0010010B10120207001E013
:1020F000002020703046BDE8FC8170B504460D46D6
:1021000000262946204601F004FC0646304670BDF4
:1021100070B504460D4600262946204601F070FCA5
:102120000646304670BD70B504460D460026294669
:10213000204601F091FC0646304670BD70B504465D
:102140000D4600262946204601F006FF0646304689
:1021500070BD2DE9F04F93B005460C464FF00008D6
:102160000C230AAA1421284600F0DDF98046B8F1B4
:10217000000F7DD10020A07520609DF833009DF8F0
:10218000321000EB012087B2002060609DF82F0024
:102190009DF82E1000EB01200004C609E6609DF8B2
:1021A00031009DF8301000EB012080B20F900F98A5
:1021B000400220619DF82B009DF82A1000EB0120C1
:1021C0001FFA80F9A4F814909DF828001290B5F831
:1021D00052010D9095F831B10D98B0F57A7F2AD063
:1021E0000D98784300F5FA704FF47A7190FBF1F096
:1021F00087B2288C80B20E90287F10901098D0B1B2
:102200000E9800FB09F0A6EB202040B9BBF1000FAF
:1022100002D042F2B82A0DE048F6E02A0AE007FBB5
:1022200006F10E9800FB09F0A6EB2020B1FBF0F0C0
:102230001FFA80FA5746BBF1000F05D0B810208175
:10224000B807000EE07502E027810020E07511A8B4
:102250004B463246CDE900402846129901F062FD16
:1022600040EA0808B8F1000F02D19DF8440020763A
:10227000B8F1000F20D11C2205F1500103A8FDF791
:1022800051FF2089ADF81400E07D8DF823006089AE
:10229000ADF8160060680490E06806902069079029
:1022A000A08AADF82000207E8DF824001C2203A90E
:1022B00005F15000FDF736FF404613B0BDE8F08F42
:1022C000F8B506460C460025002000906A4601211C
:1022D000304600F0E6F805463DB923469DF800205B
:1022E0000021304604F056F805463DB9A31C9DF880
:1022F00000200121304604F04DF805463DB9631C2D
:102300009DF800200221304604F044F805463DB90E
:10231000E31C9DF800200321304604F03BF80546FD
:102320003DB9231D9DF800200421304604F032F809
:1023300005462846F8BD2DE9F04104460D461646EF
:10234000002732462946204601F0A1FE07463846BE
:10235000BDE8F081F8B506460C4600256A46012125
:10236000304600F09EF805466DB99DF8000086F8ED
:1023700030019DF8000000F0800010B101202070B5
:1023800001E00020207015B9217886F84C1028460D
:10239000F8BD10B502460020137F0B7010BDF8B5D4
:1023A00004460E4600276A462021204600F0A5F884
:1023B000074677B9BDF8000020B9256A35600021CD
:1023C000217706E0BDF80000C500356025620121D7
:1023D00021773846F8BD2DE9F04104460D461646F2
:1023E0000027012332462946204601F077FF0746A1
:1023F0003846BDE8F0812DE9F04104460D46164609
:10240000002732462946204601F08EFF074638460F
:10241000BDE8F08138B50546002469462846FFF737
:102420001AFD044634B99DF8000018B9284600F09A
:102430008BFA04461CB9284601F0F1FE04462CB97B
:102440009DF8000010B9032085F83201204638BD00
:1024500070B505460E4600240021284600F090F88D
:1024600004461CB92846FFF7D5FF044624B9314677
:102470002846FFF76EFE044624B900212846FFF7E0
:10248000DFFB0446204670BD08B50146002000224F
:10249000009202E0009A521C0092009AFA2AF9D3A4
:1024A00008BD2DE9F04704460D461646002794F86E
:1024B0005C9132462946484602F0DEF88046B8F183
:1024C000000F01D06FF013073846BDE8F0872DE903
:1024D000F04704460D461646002794F85C913246B4
:1024E0002946484602F0D8F88046B8F1000F01D0DE
:1024F0006FF013073846BDE8F0872DE9F047044632
:102500000D461646002794F85C9132462946484607
:1025100002F0F3F88046B8F1000F01D06FF0130716
:102520003846BDE8F0872DE9F047064688469146D3
:102530001C464FF0000A402C01D36FF0030A96F8B6
:102540005C71A3B24A464146384602F0C2F80546DD
:102550000DB16FF0130A5046BDE8F0872DE9F04148
:1025600005460C460026274604EBD770C0F3470209
:102570008A21284600F067FB06463046BDE8F08118
:102580000246002003290BD003DC39B101290BD10D
:1025900005E0142905D0152906D103E000BF00BFCE
:1025A00000BF00BF117402E06FF0070000BF00BF62
:1025B00070472DE9F0478046894617461E46DDF8EC
:1025C00020A00024B9F1000F02D06FF00904A0E0B0
:1025D000142F0CD1BAF1000F01D1102500E0012514
:1025E0002A468421404600F02EFB044691E0152F38
:1025F0005AD10122FF21404600F025FB044300226E
:102600001146404600F01FFB04430022FF214046D4
:1026100000F019FB044301228021404600F013FB27
:10262000044302228521404600F00DFB04430422AE
:10263000FF21404600F007FB04430022CD21404625
:1026400000F001FB04431122CC21404600F0FBFACC
:1026500004430722FF21404600F0F5FA044300221C
:10266000BE21404600F0EFFA04430622FF21404617
:1026700000F0E9FA04430922CC21404600F0E3FAD5
:1026800004430022FF21404600F0DDFA044301220A
:10269000FF21404600F0D7FA04430022114640468D
:1026A00000F0D1FA044334E0A4B9052E0ED2DFE8DD
:1026B00006F0030507090B0000250AE0012508E0E4
:1026C000022506E0032504E0042502E06FF00A0479
:1026D00000BF00BF2CB92A460A21404600F0B3FAD9
:1026E000044664B9BAF1000F01D1002500E01025BD
:1026F0002B46EF228421404600F07CFA044614B9B0
:10270000DA2000F8086024B900214046FFF798FA63
:1027100004462046BDE8F0872DE9F05F04460D46EB
:1027200016464FF00009CB460027BA46062D02DBBD
:102730006FF0030941E02EB94FF0000B00274FF076
:10274000010A06E004F1340050F825B04FF0000A09
:102750000127062D2DD2DFE805F003060E11142007
:102760002820075528E0CBF34F224421204600F0D3
:1027700080FA814620E084F82A701DE084F82B70EE
:102780001AE04FEA4A604FEA10684346FE22602191
:10279000204600F02FFA81460EE04FEA0A704FEA19
:1027A00010684346EF226021204600F023FA81465C
:1027B00002E06FF0030900BF00BFB9F1000F09D1BB
:1027C00026B9002104F12800415503E0012104F15C
:1027D000280041554846BDE8F09F2DE9F0410546E7
:1027E0000E461446002705F1280010F80680B8F1BF
:1027F000000F03D10C3040F8264026E0062E1BD2F5
:10280000DFE806F003050D0F11126C6317E0C4F347
:102810004F224421284600F02CFA07460FE0EC63D3
:102820000DE02C640BE000BFC4F34F226421284666
:1028300000F01FFA074602E06FF0030700BF00BF79
:102840001FB905F1340040F826403846BDE8F08154
:1028500070B504460D4600262946204601F0BAFF11
:102860000646304670BD2DE9F84307460D469046B2
:1028700000260020009000246A4601213846FFF718
:1028800010FE06469DF80040002E36D1B8F1010F2B
:1028900019D1052D13D2DFE805F00306090C0F004E
:1028A00044F010040EE044F028040BE044F004046B
:1028B00008E044F0400405E044F0800402E06FF0DA
:1028C000030600BF19E0052D13D2DFE805F003066B
:1028D000090C0F0004F0EF040EE004F0D7040BE045
:1028E00004F0FB0408E004F0BF0405E004F07F04FA
:1028F00002E06FF0030600BF00BF9DF800008442B5
:1029000010D02EB922460121384600F09CF9064627
:102910000EB987F830412EB9D7F814904946384699
:10292000FFF796FF3046BDE8F8832DE9F0410446F5
:102930000D461646002732462946204602F03EF84C
:1029400007463846BDE8F0812DE9FC4106460024E3
:10295000012701A93046FFF77EFA01228021304687
:1029600000F071F904460122FF21304600F06BF9B6
:10297000044600221146304600F065F9044696F8F8
:102980003A219121304600F05EF9044601220021EF
:10299000304600F058F904460022FF21304600F08E
:1029A00052F9044600228021304600F04CF90446DA
:1029B0009DF8040020B1012823D0032843D131E041
:1029C00001220021304600F03EF904460097BCB9D0
:1029D000002500BF2DB16A4600213046FFF761FD9A
:1029E00004466D1C9DF800003840B84203D114B96C
:1029F000B5F5FA6FEED3B5F5FA6F01D36FF00604B3
:102A000024E024B901213046FFF7D8F80446022219
:102A10000021304600F017F9044614B9042086F866
:102A2000320113E024B901213046FFF7C7F804460C
:102A300004220021304600F006F9044614B90420AF
:102A400086F8320102E06FF0070400BF00BF2046A5
:102A5000BDE8FC812DE9F04397B0054600244021F4
:102A600007A8FDF778FB0020069005908146002717
:102A70000490039000260121284600F0A5FC04469E
:102A800095F8137195F81461012E05DC01D1202F02
:102A900002D846B90C2F06D904AA03A9284601F08A
:102AA00043FC044605E032463946284601F025FF3E
:102AB0000446DFF83C814CB995F85091B9F1000F0C
:102AC00002D1D5F84C8101E0DFF8248124B94146D8
:102AD000284601F02FFB044644B900200423024697
:102AE000014600902846FFF764FD04468CB9012298
:102AF000FF21284600F0A7F8044606AA84212846AC
:102B0000FFF7FBFC04430022FF21284600F09BF85E
:102B1000044324B9BDF818000001C5F8D40024B955
:102B200007A92846FFF79CF904464CB905A9284691
:102B3000FFF7E6F904461CB99DF8140085F8310149
:102B40002CB9402207A905F11000FDF7EBFA54B9A2
:102B500005AA01212846FFF7A4FC04461CB99DF8EC
:102B6000140085F830012CB9002211462846FFF7E1
:102B70007AFE04462CB9002202212846FFF773FE94
:102B8000044614B9032085F832012CB902AA0021A9
:102B90002846FFF7D0FB04461CB99DF80810E82032
:102BA00041552CB902AA01212846FFF7C4FB04466F
:102BB0001CB99DF80810E02041552CB901AA032149
:102BC000284603F013F8044614B9E4200199415152
:102BD0002CB901AA0421284603F008F8044614B9C8
:102BE000DC2001994151204617B0BDE8F083000078
:102BF000840000202DE9F84F0446894615461E46FC
:102C0000002794F85CA16A464946504601F034FD1D
:102C10008046B8F1000F01D06FF0130787B99DF817
:102C200000002840304300909DF80020494650465F
:102C300002F043F88046B8F1000F01D06FF013079F
:102C40003846BDE8F88F2DE9F04704460D46164694
:102C5000002794F85C9132462946484602F02DF848
:102C60008046B8F1000F01D06FF013073846BDE879
:102C7000F0872DE9F04704460D461646002794F8E4
:102C80005C9132462946484602F038F88046B8F151
:102C9000000F01D06FF013073846BDE8F0872DE92B
:102CA000F04705460F4690461C464FF00009CA46BD
:102CB000402C01D36FF0030995F85C61A3B2424642
:102CC0003946304602F006F88246BAF1000F01D0CC
:102CD0006FF013094846BDE8F08700002DE9FF4F6B
:102CE00090B01746DDF8788012200F904FF48040A6
:102CF0000E9042200D9006200C9007200B90002093
:102D000000901098B0F854010A901098D0F858012B
:102D10000990DDE9091000FB01FA0AF180004FEA91
:102D2000102A0A980AFB00FA00256FB11198800258
:102D30000190019800EB5705B5FBF7F505EB45054C
:102D40006D4305F50040050C1D9913984843089004
:102D5000089800F50040000C08900898404308903F
:102D600008F50040000C02900298C01C0621B0FB40
:102D7000F1F002900298C0EBC00002900298B0F50A
:102D8000803F02D3374807900DE008F10300062189
:102D9000B0FBF1F8C8EBC80808F50040000C07903C
:102DA00007984043079040F227100590059840434C
:102DB000059041F204100490049808300009049032
:102DC000DDE90410401A0590059800EB4000000171
:102DD0000690069800F50050800B0690DDE907107C
:102DE00044181F9804EB50041F98B4FBF0F4A4039C
:102DF000069804EB50040698B4FBF0F46C4304F519
:102E0000FA704FF47A71B0FBF1F4240104F5FA7012
:102E1000B0FBF1F44FF04009B9F1000F05D00AEB17
:102E20005900B0FBF9F0039001E0002003900398F3
:102E300001F06AF9834624B10AEB5400B0FBF4F6C2
:102E400000E00026304601F05FF906462098C0F801
:102E500000B0B34501D920980660009814B0BDE8D1
:102E6000F08F00000000F0FFE0B5064640F2776307
:102E70004FF4106202FB01F5A5FB0307E0BD000063
:102E80002DE9FF4FABB0054688464FF448702A90B5
:102E90004FF4167029904FF4C810289041F25C202E
:102EA0002790B84826904FF470402590B64824905B
:102EB000B64823904FF4004022904FF448102190E0
:102EC00040F27760209000BF286A15904FF47A7125
:102ED000D8F810004843000C1690D8F80C000C905D
:102EE0000DAA4146284601F0A1F815AA41462846F8
:102EF00001F0B0F813904FF47A710D9800FB01F7D0
:102F000007F50040070C1598484314901498B0F545
:102F1000481F02D94FF4481014901398002849D143
:102F2000DC2040591E90E020405D06902846069A1D
:102F30001E9900F02DF90990E42040591D90E820D9
:102F4000405D05902846059A1D9900F021F90890EA
:102F500003200A900698082801D102200A900A98B6
:102F6000C002DDE90812114448430790079800F5B4
:102F7000FA704FF47A71B0FBF1F0079040F277618C
:102F8000079848430790079800F5FA704FF47A7154
:102F9000B0FBF1F007900D988030000A0D90079972
:102FA0000D9848431F901F988030000A1F900D987D
:102FB00000020D90139818B113982FB0BDE8F08F50
:102FC0004FB970492D9801600846C5F840010021AD
:102FD0002E980160D4E01F9808B901201F904FF48B
:102FE00048701B9016980004B0FBF7F666488642BE
:102FF00000D906464FF4167046431F9901EB410174
:10300000880001F081F840001A90B8F808005F4984
:103010004843199014984000C0EB074000F5FA703F
:103020004FF47A71B0FBF1F01290481000EB0740BA
:10303000B0FBF1F11191129800021290DDE911122A
:10304000B2FBF1F0002801DB014600E0414217919C
:1030500017980002179098F8180010B14FF48034B8
:1030600010E041F25C211998B0FBF1F41798C0F51B
:103070008030444304F50040040C04F580346408B7
:103080006443A40B1B9804FB00FA0AF500404FEAC6
:10309000104A0AFB0AFAB3460BF500404FEA104B00
:1030A0000BFB0BFB0AEB0B001090109801F02CF8B7
:1030B0000F900F9800040F900F9832306421B0FBEE
:1030C000F1F11A98B1FBF0F940F6B53009FB00F9BF
:1030D00041F2883081444000B9FBF0F9B9F5704FF6
:1030E00001D94FF47049DDE91D10084400F5FA706C
:1030F0004FF47A71B0FBF1F01C904FF4C8111C989A
:1031000001EB5001B1FBF0F0049000F0FDFF0B90DB
:103110000B9800020B900B9800F5FA704FF47A713F
:10312000B0FBF1F00B9009FB09FA0B9800FB00FBD8
:103130000AEB0B0000F0E8FF0E904FF47A710E9846
:10314000484318902FB11F9818B10E49189888421B
:1031500001D90C4818902D99189808602D9800688E
:10316000C5F84001079A1B992E982346CDE90162C4
:10317000009103902846DDE90C21FFF7AFFD139085
:1031800013981AE7AE878F02666666009A99060062
:103190002DE9F04307460C46154600BF2946384640
:1031A000FFF762FE814609F5FA704FF47A71B0FBC1
:1031B000F1F60846604300EB5600B0FBF6F84046D7
:1031C000BDE8F0832DE9F04306460C46154600277E
:1031D00029463046FFF748FE804608F5FA704FF45E
:1031E0007A71B0FBF1F904FB09F000F5FA70B0FB5D
:1031F000F1F73846BDE8F0832DE9F04704460D4667
:10320000164600270221204600F0DEF80746AFB937
:1032100094F8F180B8F1000F06D10020287009A0C1
:10322000007886F8400009E0F220005D287004F183
:10323000F309494606F14000FCF798FF3846BDE81F
:10324000F08700000000000001460020CAB20B0A0F
:103250009A40501C7047014600204A1C5206100E2E
:103260007047F8B506460024002283213046FFF758
:10327000EAFC0443B4B9002500BF6A468321304606
:10328000FFF70FF904469DF8000000B904B103E010
:103290006D1CB5F5FA6FF0D300BFB5F5FA6F01D329
:1032A0006FF00604012283213046FFF7CCFC044373
:1032B0002046F8BD10B5014600200022002361B170
:1032C0004A1E02E052085C1CA3B222F0FF04002C4C
:1032D000F8D1144663F31F24A0B210BD01460020AC
:1032E0000122C2EB6102D0B2704700007CB50646F5
:1032F0000C460025224669463046FFF77DFF05460D
:10330000002D26D19DF8000020B91EA12046FCF713
:103310002DFF19E09DF80000222808DC9DF8000030
:10332000202804D01AA12046FCF720FF0CE09DF8CD
:103330000000272804DA19A12046FCF717FF03E054
:1033400019A12046FCF712FF1DA104F12000FCF793
:103350000DFF35B904F16002C0213046FFF7A1F836
:1033600005466DB901AAC2213046FFF79AF8054615
:10337000012084F861009DF80400000984F86200CF
:1033800028467CBD564C35334C30582054533000C1
:10339000564C35334C30582054533100564C35334D
:1033A0004C30582054533200564C35334C30582052
:1033B000455331206F72206C61746572000000000B
:1033C000564C35334C3058002DE9F04F93B005463C
:1033D0000F46002400200E900D900C900B9082461A
:1033E00083464FF4C8500A904FF00009002009901E
:1033F0000290F020465D072E7ED0012280212846D3
:10340000FFF721FC04430122FF212846FFF71BFCA4
:103410000443002211462846FFF715FC0443062208
:10342000FF212846FFF70FFC044312AA83212846F8
:10343000FFF737F804439DF8480040F00402832169
:103440002846FFF700FC04430722FF212846FFF728
:10345000FAFB0443012281212846FFF7F4FB0443D1
:103460002846FFF711F80443012280212846FFF780
:10347000EAFB044307F00100002855D006F00100E4
:10348000002851D16B2294212846FFF7DCFB04432E
:103490002846FFF7E6FE044311AA90212846FFF7CD
:1034A00016F804431198C0F306200E901198C0F34B
:1034B000C0300D90242294212846FFF7C4FB04431A
:1034C0002846FFF7CEFE044311AA90212846FEF7B6
:1034D000FEFF04431198000E8DF800001198000CB7
:1034E0008DF801001198000A8DF802001198C0B201
:1034F0008DF80300252200E0A4E194212846FFF77F
:10350000A2FB04432846FFF7ACFE044311AA902116
:103510002846FEF7DCFF04431198000E8DF80400E6
:103520001198000C8DF8050007F0020002287DD1EB
:1035300006F002000028FAD1022294212846FFF763
:1035400082FB04432846FFF78CFE044310AA902117
:103550002846FEF7A6FF04437B2294212846FFF766
:1035600072FB04432846FFF77CFE04430FAA902118
:103570002846FEF796FF0443772294212846FFF75A
:1035800062FB04432846FFF76CFE044311AA902116
:103590002846FEF79CFF04437F21119801EA506002
:1035A0008DF810001198C0F386408DF81100119825
:1035B000C0F3C6208DF812001198C0F306108DF8E4
:1035C000130011980007400E12907822942128468B
:1035D000FFF739FB04432846FFF743FE044311AAD3
:1035E00090212846FEF773FF04437F21119801EADA
:1035F00050709DF848100844C0B28DF8140011981E
:10360000C0F386508DF815001198C0F3C6308DF8C0
:1036100016001198C0F306208DF817001198C0F31A
:1036200046008DF818001198C00700E05FE0400EDA
:103630001290792294212846FFF705FB044328467F
:10364000FFF70FFE044311AA90212846FEF73FFF23
:1036500004437F21119801EA90609DF848100844C6
:10366000C0B28DF819001198C0F3C6408DF81A0049
:103670001198C0F306308DF81B001198C0F3461066
:103680008DF81C001198C006400E12907A229421E9
:103690002846FFF7D8FA04432846FFF7E2FD044323
:1036A00011AA90212846FEF712FF04437F211198AA
:1036B00001EA90709DF848100844C0B28DF81D00D2
:1036C0001198C0F3C6508DF81E001198C0F3064043
:1036D0008DF81F001198C0F346208DF82000119836
:1036E000C0F386008DF8210000208DF8220007F03D
:1036F0000400042873D106F0040000286FD17B2257
:1037000094212846FFF79FFA04432846FFF7A9FDB6
:1037100004430CAA90212846FEF7D9FE04437C22DC
:1037200094212846FFF78FFA04432846FFF799FDB6
:1037300004430BAA90212846FEF7C9FE04437322D6
:1037400094212846FFF77FFA04432846FFF789FDB6
:10375000044311AA90212846FEF7B9FE04431198AC
:103760000006000C0990742294212846FFF76BFA9A
:1037700004432846FFF775FD044311AA902128460B
:10378000FEF7A5FE04431199099840EA11600990DB
:10379000752294212846FFF756FA04432846FFF77E
:1037A00060FD044311AA90212846FEF790FE0443D1
:1037B000119800064FEA1049762294212846FFF717
:1037C00042FA04432846FFF74CFD044311AA902116
:1037D0002846FEF77CFE0443119849EA106900224E
:1037E00081212846FFF72FFA04430622FF212846AD
:1037F000FFF729FA044312AA83212846FEF751FE57
:1038000004439DF8480000F0FB0283212846FFF79F
:103810001AFA04430122FF212846FFF714FA044351
:10382000012200212846FFF70EFA04430022FF215F
:103830002846FFF708FA0443002280212846FFF7B4
:1038400002FA0443002C60D1072E5ED007F001007D
:10385000A8B106F0010090B90E9885F813010D98F3
:1038600085F81401A04607E01DF8081005F59570CD
:1038700000F8081008F10108B8F1060FF4DB07F0B2
:103880000200022811D106F0020070B99DF8401024
:10389000F12041559DF83C10F220415505F1F3000F
:1038A000039004A90398FCF761FC07F004000428C6
:1038B00024D106F0040008BB4FF48C700C994151E0
:1038C000001D0B9941510998400202904FF49071EC
:1038D000029848514FF0000BB9F1000F0CD00A9834
:1038E000A9EB000A4FF47A700AFB00F04FEA101BB4
:1038F000CBF100000FFA80FBC5F80CB046EA0700D8
:1039000012909DF84810F0204155204613B0BDE8B4
:10391000F08F2DE9F04F87B006460C4600254FF496
:10392000FA60039040F276774FF470784FF425797F
:1039300040F24E2A40F2B22B4846029040F2262036
:1039400001900020009007EB0800206005A9304698
:10395000FEF7B6FC05461DB1284607B0BDE8F08F5E
:103960009DF8140028B99DF8150010B99DF81600AF
:1039700008B303AA0221304602F038F90546D5B94A
:103980009DF8140020B12068039951440844206038
:103990009DF8160038B1206803995944022202FBB1
:1039A0000100206007E09DF8150020B12068039910
:1039B00049440844206075B99DF8170058B16A461B
:1039C0000321304602F012F905462168009A029858
:1039D00010440844206075B99DF8180058B104AA35
:1039E0000421304602F002F905462168049A019844
:1039F0001044084420600DB9216871612846ACE785
:103A00002DE9F84306460C46002540F2FF774FF4B7
:103A100080586A4628213046FEF76FFD0546BDB93D
:103A2000BDF80000C0F30B000090BDF80000B842E4
:103A300008DDBDF80000A0EB080000B2FA21484301
:103A4000206005E0BDF8000000B2FA214843206084
:103A50002846BDE8F883000070B504460D460026F0
:103A6000204614F1080F54D01DDC10F1140F64D05F
:103A70000CDC10F1630F77D010F1320F6FD010F122
:103A8000280F64D010F11E0F73D15BE010F10C0F02
:103A900030D010F10B0F4BD010F10A0F43D010F1C2
:103AA000090F66D13AE0C01D082862D2DFE800F0B5
:103AB0002C271D18130E090432A12846FCF756FBCB
:103AC0005CE033A12846FCF751FB57E037A12846BC
:103AD000FCF74CFB52E03AA12846FCF747FB4DE0CF
:103AE0003BA12846FCF742FB48E040A12846FCF7F2
:103AF0003DFB43E042A12846FCF738FB3EE046A1EF
:103B00002846FCF733FB39E046A12846FCF72EFB9C
:103B100034E048A12846FCF729FB2FE04CA12846B9
:103B2000FCF724FB2AE04FA12846FCF71FFB25E009
:103B300051A12846FCF71AFB20E056A12846FCF7C5
:103B400015FB1BE059A12846FCF710FB16E05DA110
:103B50002846FCF70BFB11E006E000E009E05FA15E
:103B60002846FCF703FB09E063A12846FCF7FEFAB0
:103B700004E067A12846FCF7F9FA00BF00BF304611
:103B800070BD00004E6F204572726F720000000021
:103B900043616C6962726174696F6E205761726E05
:103BA000696E67204572726F720000004D696E2069
:103BB000636C6970706564206572726F72000000DA
:103BC000556E646566696E6564206572726F720019
:103BD000496E76616C696420706172616D657465AF
:103BE0007273206572726F72000000004E6F742055
:103BF000737570706F72746564206572726F720095
:103C0000496E74657272757074206E6F7420436CA7
:103C1000656172656400000052616E6765206572BF
:103C2000726F720054696D65206F757420657272D1
:103C30006F7200004D6F6465206E6F742073757035
:103C4000706F72746564206572726F72000000009C
:103C500042756666657220746F6F20736D616C6C5F
:103C6000000000004750494F206E6F74206578694E
:103C70007374696E670000004750494F2066756E87
:103C80006374206E6F7420737570706F72746564E6
:103C900000000000436F6E74726F6C20496E746593
:103CA0007266616365204572726F7200496E76615B
:103CB0006C696420436F6D6D616E64204572726F34
:103CC000720000004469766973696F6E2062792022
:103CD0007A65726F204572726F7200005265666578
:103CE00072656E6365205370616420496E6974204B
:103CF0004572726F720000004E6F7420696D706CB7
:103D0000656D656E746564206572726F7200000087
:103D1000556E6B6E6F776E204572726F7220436FB7
:103D2000646500002DE9FF4F8FB007469946DDE935
:103D30001CA6002500200E900D900C900B900A9070
:103D4000099008900024029001901098C0F3C304D9
:103D50005CB1052C09D0072C07D00C2C05D00D2CFC
:103D600003D00E2C01D00F2C02D14FF0010B01E03B
:103D70004FF0000B2DB90BAA00213846FEF729F9A8
:103D800005469DF82C00D0B1CDB901AB07AA51462C
:103D90003846FFF775F8054615B90198AAF80A00E4
:103DA0006DB906AA00213846FEF721F905460698A6
:103DB00028B1DDE90610884201D901200E902DB905
:103DC00009AA02213846FEF704F905469DF82400A9
:103DD00050B34DBB05AA02213846FEF708F9054647
:103DE0002DB90122FF213846FEF72DFF05462DB9DA
:103DF00002AAB6213846FEF780FB05462DB90022FF
:103E0000FF213846FEF71FFF0546BDF808004002B7
:103E100000900098C7F84801059828B105990098C6
:103E2000884201D901200D902DB908AA03213846F6
:103E3000FEF7CFF805469DF82000C8B1C5B9B9F125
:103E4000000F02D10020039004E011980002B0FBA3
:103E5000F9F0039004AA03213846FEF7C8F8054696
:103E6000049828B1DDE90301884201D201200C90B9
:103E700035BBBBF1010F02D1FF20307028E0012CCF
:103E800003D0022C01D0032C02D1052030701FE09A
:103E9000062C01D0092C02D10420307018E0082C27
:103EA00004D00A2C02D00D98012802D103203070D2
:103EB0000EE0042C02D00C98012802D102203070B0
:103EC00006E00E98012801D1307001E0002030702A
:103ED000307810B90020AAF80A000AAA0121384651
:103EE000FEF777F8054675BB9DF82C0010B10E98CB
:103EF000012802D14FF0010801E04FF0000887F8D7
:103F00002E80042C02D09DF8280010B94FF0010833
:103F100001E04FF0000887F82F809DF8240010B1D1
:103F20000D98012802D14FF0010801E04FF0000880
:103F300087F830809DF8200010B10C98012803D13B
:103F40004FF0010802E003E04FF0000887F83180ED
:103F5000284613B0BDE8F08F70B504460D46002624
:103F6000062C22D2DFE804F003080D12171C13A15F
:103F70002846FCF7FBF81DE014A12846FCF7F6F8EC
:103F800018E016A12846FCF7F1F813E017A128461F
:103F9000FCF7ECF80EE019A12846FCF7E7F809E079
:103FA0001AA12846FCF7E2F804E01CA12846FCF719
:103FB000DDF800BF00BF304670BD000052616E6783
:103FC000652056616C696420202000005369676D8C
:103FD00061204661696C2020202000005369676ED3
:103FE000616C204661696C20202000004D696E20C4
:103FF00052616E6765204661696C000050686173AC
:1040000065204661696C20202020000048617264B0
:1040100077617265204661696C2000004E6F205503
:10402000706461746520202020200000F8B50746E8
:104030000D4614460026E86820606A462946384640
:1040400000F008F806461EB9206800990844206070
:104050003046F8BD2DE9F84305460E4614460027C4
:104060000020206069462846FEF793F907465FB9AD
:104070009DF8000040B1D5F82080B08A00FB08F917
:1040800009F18000000A20603846BDE8F883F8B5E1
:1040900007460C461546002614B1012C0ED106E049
:1040A0006A4650213846FEF7FCF9064609E06A46A2
:1040B00070213846FEF7F5F9064602E06FF0030678
:1040C00000BF00BF26B99DF80000FFF7C4F82870B4
:1040D0003046F8BD08B501210420FDF743F90C2056
:1040E000ADF8000010208DF8030003208DF80200C9
:1040F00069460448FCF782FC0C210248FCF714FDD9
:1041000008BD000000080140024600204FF0804139
:1041100000E089089142FCD809E04318934204D892
:104120004318D21A01EB500000E04008890800292A
:10413000F3D170472DE9FF5F06460D46002003903E
:10414000002463E02F5D641CFF2F44D1285D0290A2
:10415000641C029830B1012811D002281CD0032819
:1041600034D126E015F80480641C15F80490641C12
:1041700009EB08201FFA80FAA6F834A12AE015F806
:104180000480641C15F80490641C09EB08201FFAD5
:1041900080FAA6F836A11DE015F80480641C15F815
:1041A0000490641C09EB08201FFA80FAA6F838A1D5
:1041B00010E015F80480641C15F80490641C09EBE9
:1041C00008201FFA80FAA6F83CA103E06FF0030074
:1041D000039000BF1AE0042F15DC285D0190641CD9
:1041E0004FF0000B05E0285D0DF80B00641C0BF18F
:1041F000010BBB45F7DB3B466A4630460199FEF7AB
:104200004EFD039002E06FF003000390285D10B1B3
:104210000398002896D0039804B0BDE8F09FF8B545
:104220000646002400200090002500BF6946304665
:10423000FDF738FF044604B10FE09DF800000128A7
:1042400000D10AE06D1CB5F5FA6F02D36FF00604D9
:1042500003E03046FEF718F9E8E700BF2046F8BD56
:104260002DE9F04F85B005460E4690461F460024C6
:10427000A146A246A3460FB195F830910222012132
:104280002846FEF7E0FC044624B90021284600F049
:1042900094F904468CB9B8F1010F0ED10120002128
:1042A00004AA5B46CDE90026CDE90210524601463C
:1042B000284600F037FA044601E0002030704CB97F
:1042C00047B14A4601212846FEF7BDFC04460CB919
:1042D00085F83091204605B0BDE8F08F2DE9F04714
:1042E0000546894616461F460024A04695F83081AB
:1042F00000233A464946284600F07FF9044634B97F
:1043000000233A4631462846FFF7AAFF044644B93F
:10431000424601212846FEF796FC04460CB985F872
:1043200030812046BDE8F0872DE9F74F94B0044670
:1043300000254FF0B40B032011902C201090002684
:1043400000200F900E904FF42067804681464FF07A
:10435000060A0C900B900A9009900890079006901E
:10436000B4F83C7100BF06E0002104F5927000F83B
:10437000091009F10109D145F6D30122FF21204698
:10438000FEF761FC05462DB900224F212046FEF7BD
:104390005AFC05462DB92C224E212046FEF753FC2F
:1043A00005462DB90022FF212046FEF74CFC0546AC
:1043B0002DB95A46B6212046FEF745FC05462DB9D3
:1043C000002280212046FEF73EFC054635B9002339
:1043D00008AA09A92046FFF781FF05468DB90026E6
:1043E0000F96B0460FA91198CDE900ABCDE9026058
:1043F0000491414604F592739A1D204601F038FB62
:104400000546002D44D10F9E0DA9204601F070FFF6
:104410000546002D3AD1BDF83400B84236DDA94634
:1044200006E0002104F5927000F8091009F1010975
:10443000D145F6D300E0761C0BEB060001F068FCDA
:1044400010B910988642F6D34FF001080FA91198C1
:10445000CDE900ABCDE902600491414604F59273C9
:104460009A1D204601F004FB05468DB90F9E0DA94B
:10447000204601F03DFF054655B9BDF83400B8426D
:1044800006DD012006901198079001E04FF000082A
:10449000002D7CD1BDF83400B84278DA08F0FF0076
:1044A000069011980790524604F5927112A8FBF7F6
:1044B00039FEBDF83410C81B002801DB014600E0BE
:1044C00041420B9100200A905DE00EAB324651460E
:1044D00004F5957001F04AFB0E98401C10B96FF07E
:1044E000310553E00E990BEB010001F011FC404542
:1044F00002D001200A9049E00798401C07900E9EC8
:104500003246514604F5927001F008FB054635B974
:10451000761C04F59271204601F060FF054605B156
:1045200034E00DA9204601F0E3FE054605B12DE07B
:10453000BDF83410C81B002801DB014600E04142F1
:104540000C91BDF83400B84215DDDDE90B1088424E
:104550000DD912A9204601F041FF0546524612A985
:1045600004F59270FBF7DEFD0798401E07900120CE
:104570000A9008E00BE00C980B90524604F59271FB
:1045800012A8FBF7CFFD0A9800289ED000BF85B97E
:10459000159907980860169906980870012184F803
:1045A00015111598017884F813111698017884F87C
:1045B0001411284617B0BDE8F08F70B506460D46B9
:1045C000002434B945F0010200213046FEF73BFBE0
:1045D00004461CB93046FFF722FE044624B90021E8
:1045E0003046FDF72DFB04462CB90022114630461B
:1045F000FEF729FB0446204670BD2DE9F04F85B03B
:1046000005460E4690461F460024A146A246A346F4
:10461000002004900FB195F83091012211462846F0
:10462000FEF711FB044624B940212846FFF7C5FFD9
:10463000044684B9B8F1010F0DD10020012104AA6C
:104640005B46CDE90062CDE902105246284600F0F3
:1046500069F8044601E0002030704CB947B14A4681
:1046600001212846FEF7EFFA04460CB985F830918F
:10467000204605B0BDE8F08F2DE9F04104460D4617
:1046800016460027012332462946204600F021F82D
:1046900007463846BDE8F081F8B505460E46144693
:1046A000002704236A463146284600F012F80746E0
:1046B0009DF8000000069DF8011000EB01409DF8F8
:1046C000021000EB01209DF80310084420603846DA
:1046D000F8BD2DE9F04106460F4614461D464FF041
:1046E000000823462A463946304600F0C1FB08B18F
:1046F0004FF001084046BDE8F081F8B505460E468A
:104700001446002702236A4631462846FFF7E1FF98
:1047100007469DF801009DF8001000EB0120208065
:104720003846F8BD2DE9F84F80460D4691469A4629
:10473000DDE90BB60D9F0024002000900122FF212F
:104740004046FEF780FA0443002211464046FEF739
:104750007AFA04430022FF214046FEF774FA04432C
:1047600075B12EB1CB2140460A9AFDF79AFE04435B
:10477000AFB16A46EE214046FDF793FE04430EE0DA
:104780002EB14A46CB214046FEF75DFA044337B1CD
:1047900053468022EE214046FEF72CFA04430122C4
:1047A000FF214046FEF74FFA044301220021404614
:1047B000FEF749FA04430022FF214046FEF743FA80
:1047C00004439DF8000000F0EF008BF80000204645
:1047D000BDE8F88F2DE9F04F89B080460F460026DE
:1047E0004FF4FA60069040F276794FF4707A4FF405
:1047F000257B40F24E20059040F2B22004905846AE
:10480000039040F2262002900020019044F62060A0
:10481000009000250098874204D22E1F304609B030
:10482000BDE8F08F09EB0A003C1A07A94046FDF7E6
:1048300047FD0646002E3BD19DF81C0030B99DF87F
:104840001D0018B99DF81E00002831D006AA0221CB
:10485000404601F0CBF906460EB13046DFE79DF841
:104860001C0040B1DDE905010D18A54201D2641B11
:1048700001E06FF003060EB13046D0E79DF81E0050
:1048800050B10699049808444500A54201D2641B22
:104890000EE06FF003060BE09DF81D0040B1069896
:1048A00000EB0B05A54201D2641B01E06FF003068B
:1048B0000EB13046B3E79DF81F0070B101AA032185
:1048C000404601F093F90646019903980D18A54258
:1048D00001D2641B01E06FF0030666B99DF8200069
:1048E00048B10298241A22460421404601F082FD74
:1048F0000646C8F81470304691E72DE9F04F87B0AE
:10490000044689461646002500274FF0B40A4FF0AA
:10491000060B2C2006900122FF212046FEF793F97A
:1049200005462DB900224F212046FEF78CF9054699
:104930002DB92C224E212046FEF785F905462DB9CA
:104940000022FF212046FEF77EF905462DB952468A
:10495000B6212046FEF777F905464FF0000806E03D
:10496000002104F5927000F8081008F10108D845FC
:10497000F6D34EB100E07F1C0AEB070001F0C8F946
:1049800010B906988742F6D305A804F592739A1DCC
:104990003146CDE900BACDE902790490204601F014
:1049A00067F8054635B9012184F8151184F813918B
:1049B00084F81461284607B0BDE8F08F2DE9F04F68
:1049C00087B007460E46154600244FF00C094FF0FD
:1049D000120A4FF0080B0E20059000200190284687
:1049E00005EBD0714910A5EB410109B1241F10E07E
:1049F00036B94D4501DB554502DD6FF0030408E093
:104A0000012E06D15D4502DB0598854201DD6FF080
:104A100003041CB1204607B0BDE8F08FDEBB0C2DAF
:104A20000CD1182257213846FEF70DF9044608220A
:104A300056213846FEF707F90446E2E00E2D0CD168
:104A4000302257213846FEF7FEF804460822562148
:104A50003846FEF7F8F80446D3E0102D0CD140227A
:104A600057213846FEF7EFF804460822562138460B
:104A7000FEF7E9F80446C4E0122DDED1502257219A
:104A80003846FEF7E0F80446082256213846FEF77D
:104A9000DAF80446B5E0FFE7012ECED1082D2AD181
:104AA000102248213846FEF7CEF804460822472156
:104AB0003846FEF7C8F80446022232213846FEF78F
:104AC000C2F804430C2230213846FEF7BCF80443F8
:104AD0000122FF213846FEF7B6F804433022114682
:104AE0003846FEF7B0F804430022FF213846FEF7AF
:104AF000AAF8044385E00A2D2AD128224821384605
:104B0000FEF7A1F80446082247213846FEF79BF835
:104B10000446032232213846FEF795F80443092261
:104B200030213846FEF78FF804430122FF21384632
:104B3000FEF789F80443202230213846FEF783F837
:104B400004430022FF213846FEF77DF8044358E075
:104B50000C2D2AD1382248213846FEF774F8044635
:104B6000082247213846FEF76EF804460322322118
:104B70003846FEF768F80443082230213846FEF72D
:104B800062F804430122FF213846FEF75CF8044333
:104B9000202230213846FEF756F804430022FF2138
:104BA0003846FEF750F804432BE00E2D29D1482259
:104BB00011463846FEF747F8044608224721384692
:104BC000FEF741F80446032232213846FEF73BF84F
:104BD0000443072230213846FEF735F8044301220A
:104BE000FF213846FEF72FF80443202230213846B3
:104BF000FEF729F804430022FF213846FEF723F888
:104C00000443002C47D12846FEF768FB069016B1F6
:104C1000012E3CD124E003AA0321384600F0E6FF30
:104C200004462CB902AA0221384600F0DFFF0446F0
:104C30002CB950213846069AFEF705F804462CB9DF
:104C400003213846039A01F0D5FB04462CB9022112
:104C50003846029A01F0CEFB0446E820C55519E01B
:104C600004AA0421384600F0C1FF04462CB9702183
:104C70003846069AFDF7E7FF04462CB9042138466A
:104C8000049A01F0B7FB0446E020C55502E06FF03E
:104C9000030400BF00BF34B9D7F81480414638463A
:104CA000FDF7D6FD044634B90123002201A9384698
:104CB000FFF7D6FA04462046ADE6F7B504460D46A2
:104CC0000026012302AA2946204600F003F80646E2
:104CD0003046FEBD2DE9F04106460F4614461D46FE
:104CE0004FF0000823462A463946304600F0B0F916
:104CF00008B14FF001084046BDE8F081F8B506461E
:104D00000C461546002728128DF80000E8B28DF8F1
:104D10000100204604EBD0714910A4EB41010129A8
:104D20000ED101236A4621463046FFF7D3FF0746DE
:104D300001236A4621463046FFF7CCFF074606E0CE
:104D400002236A4621463046FFF7C4FF074638462D
:104D5000F8BD000010B500200F4908600F4800683A
:104D600020F470600D4908600846006840F4407007
:104D7000086000200A49C1F88801022000F052FEB4
:104D8000012005490860022000F04CFE0020044983
:104D9000C1F88C0110BD00008C01214200080140C7
:104DA0000000214210B500200F4908600F4800683C
:104DB00020F470600D4908600846006840F44070B7
:104DC000086001200A49C1F88801022000F02AFE8B
:104DD000012005490860022000F024FE002004495B
:104DE000C1F88C0110BD00008C0121420008014077
:104DF0000000214270B500241A48006820F4706059
:104E0000184908600846006840F400600860012006
:104E100015490860042000F005FE00251AE0600630
:104E2000040E00201049091D0860042000F0FAFD5E
:104E300001200E49C1F88C01042000F0F3FD0A485E
:104E40008038006808B144F00104042000F0EAFD55
:104E5000681CC5B2082DE2DB00200349091D08606B
:104E6000204670BD00080140880121420000214217
:104E70002DE9F04106460F4614461D4600F06AF83B
:104E8000304600F02DF800F0B1F820B100F088F8BD
:104E90000120BDE8F081384600F022F800F0A6F8C5
:104EA000012000F099FD00F055F846F0010000F0F7
:104EB00017F800F09BF80CE0FFF79CFF2870012C1E
:104EC00002D1FFF76FFF01E0FFF744FF6D1C601E8A
:104ED00084B2002CF0D100F063F80020D9E7000084
:104EE00070B504461848006820F4706016490860E0
:104EF0000846006840F440700860002013490860CC
:104F000000251EE0E00920B101201049091F0860BA
:104F100003E000200D49091F08606006040E02200E
:104F200000F080FD012009490860022000F07AFDB0
:104F300000200749C1F88C01022000F073FD681CB5
:104F4000C5B2082DDEDB70BD000801408C01214296
:104F50000000214210B50F48006820F470600D4930
:104F600008600846006840F44070086001200A4963
:104F700008600A49C1F88C01042000F053FD0020AC
:104F800005490860042000F04DFD00200349C1F8E8
:104F90008C0110BD0008014088012142000021421F
:104FA00010B50F48006820F470600D49086008468D
:104FB000006840F44070086000200A4908600A490F
:104FC000C1F88801042000F02DFD0120054908608A
:104FD0000549C1F88801042000F024FD10BD00003F
:104FE000000801408C0121420000214210B500243C
:104FF0001448006820F47060124908600846006890
:1050000040F40060086001200F49086000F00AFDCC
:1050100001200E49C1F88C0100F004FD07E0601C7E
:10502000C4B2FA2C03DDFFF7BBFF012010BD064818
:10503000803800680028F2D10349091D086000BFCC
:10504000F4E70000000801408801214200002142ED
:105050002DE9F04107460D4616461C46FFF77AFF3C
:105060003846FFF73DFFFFF7C1FF20B1FFF798FF7C
:105070000120BDE8F0812846FFF732FFFFF7B6FFB9
:1050800005E014F8010BFFF72BFFFFF7AFFF301E11
:10509000A6F101018EB2F4D1FFF782FF0020E8E70C
:1050A0000FB4054B10B503A9044A029800F0DAF8D2
:1050B00010BC5DF814FB0000515B00085800002094
:1050C00002E008C8121F08C1002AFAD170477047D1
:1050D000002001E001C1121F002AFBD1704700002F
:1050E0002DE9FF5F82B00021DDE90430020DDDF81B
:1050F00040B0034318D044F61050A2F2FF324243AE
:105100001514119801281FD0A5EB0B00401C5FEA75
:10511000000A4FF000064E4FDFF83891B046504677
:1051200015D5CAF1000413E0119801244AA30128FF
:1051300001D16FEA0B010298119AC0E90031C0E970
:10514000024206B0BDE8F09FCBF10000DFE7044665
:105150000021404A491842EB0450CDE9001012E00A
:10516000E00707D032463B4640464946FBF738F950
:105170008046894632463B4610461946FBF730F9D1
:1051800006460F466410002CEAD1DDE90401DDE992
:105190000023BAF1000F06DAFBF722F942464B462C
:1051A000FBF71EF905E0FBF725FB42464B46FBF7F4
:1051B00021FB04460E460022284BFBF7A3FB03D835
:1051C0004FF0FF30014607E00022254B20463146D4
:1051D000FBF75FF8FBF77DFB102409E0002C0ADBEE
:1051E0000A220023FBF720FA039B30321A55641E73
:1051F00050EA0102F2D1641C039AC4F11103144471
:10520000119A012A03D0012208430DD10AE0084374
:1052100004D000204FF0110B119072E7A3EB0B05A7
:105220006D1E0DE05B4504DD4FF0000205F1010548
:1052300004E003DA4FF00002A5F10105002AECD0EA
:1052400002981199C0E90231C0E9004579E70000F0
:10525000000014400000F03F300000000000F04368
:105260000000E03F2DE9FF4F95B09B46894606467A
:1052700000250FE2252877D100242746F84A01218E
:10528000059400E0044316F8013F203B01FA03F0C7
:105290001042F7D130782A2811D06FF02F033078E0
:1052A000A0F13002092A16D8059A44F0020402EB54
:1052B000820203EB42021044761C0590EFE759F896
:1052C000042B0592002A03DA504244F4005405905E
:1052D00044F00204761C30782E2816D116F8010FFF
:1052E00044F004042A280DD06FF02F023078A0F18A
:1052F0003003092B09D807EB870302EB4303C718D8
:10530000761CF3E759F8047B761C30786C280FD0B4
:1053100006DC4C2817D068280DD06A2814D104E088
:10532000742810D07A280FD10DE044F400140AE05C
:1053300044F4801401E044F440147278824202D1B3
:1053400004F58014761C761C307866280BD013DCAC
:10535000582877D009DC002875D04528F6D0462893
:10536000F4D047281AD19DE118E0632835D064288D
:1053700079D0652812D195E1702873D008DC6728B0
:10538000F1D069286FD06E280DD06F2806D1B5E016
:1053900073282CD0752875D0782874D05A46179960
:1053A00090476D1C75E1C4F30250022809D0032810
:1053B0000DD0D9F8001004280DD00D6009F10409B2
:1053C00067E1D9F80010EA17C1E90052F6E7D9F809
:1053D00000100D80F2E70D70F0E719F8041B8DF84E
:1053E000001000208DF80100EA46012003E059F882
:1053F00004AB4FF0FF3061074FF0000102D40DE025
:1054000008F101018846B9420FDA8045F8DB1AF845
:1054100008100029F4D108E008F101018846814212
:10542000FADB1AF808100029F6D105985B46A0EBC4
:10543000080721463846179A00F094FA284400EBF2
:10544000080507E04DE029E10DE01AF8010B5A4686
:1054500017999047B8F10108F7D25B4621463846C4
:10546000179A13E142E00A220092C4F302524FF06D
:10547000000A022A08D059F804CB032A4FEAEC713B
:105480000AD00DE029E02AE009F1070121F0070226
:10549000F2E802C1914609E00FFA8CFC4FEAEC7188
:1054A000042A03D14FFA8CFC4FEAEC71002907DA89
:1054B0000A460021DCF1000C61EB02012D2202E022
:1054C000220504D52B228DF80420012203E0E207F7
:1054D00001D02022F7E7904659E00A2102E010228D
:1054E0000DE010214FF0000A00910BE010224FF068
:1054F000000A44F004040827009203E008224FF059
:10550000000A0092C4F30252022A05D059F804CBD3
:105510000021032A08D009E009F1070121F0070260
:10552000F2E802C1914605E01FFA8CFC042A01D181
:105530000CF0FF0C4FF00008220728D5702806D089
:10554000009B83F0100353EA0A0305D00EE04022CB
:105550008DF80420012208E05CEA010206D0302226
:105560008DF804208DF8050002229046009B83F000
:10557000080353EA0A030AD15CEA010201D1620777
:1055800005D530228DF804204FF001087F1E5828E1
:1055900004D034A003900EA802900DE036A0F9E7E5
:1055A00053466046009AFBF73FF884460398825CB6
:1055B0000298401E029002705CEA0100F0D102984D
:1055C00006A9081A00F1200A600702D524F48034E5
:1055D00000E00127574502DDA7EB0A0000E00020AC
:1055E00000EB0A01009005984144401A0590E00341
:1055F00006D45B462146179A059800F0B3F9054496
:10560000002706E001A85A46C05D179990476D1C17
:105610007F1C4745F6DBE0030CD55B462146179A15
:10562000059800F09FF9054404E030205A46179988
:1056300090476D1C0099481E00900029F5DC08E099
:10564000029802995A460078491C0291179990478E
:105650006D1CBAF10001AAF1010AF1DC65E100005C
:105660000928010030313233343536373839616238
:1056700063646566000000003031323334353637FC
:1056800038394142434445460000000000F058F9D3
:105690000544761C307800287FF4ECAD19B028461C
:1056A000BDE8F08F620700D4062709F1070222F057
:1056B000070CFCE80223E14603F000485FEA080C0F
:1056C00002D00FF2702C0DE05FEA045C02D50FF2FD
:1056D000682C07E05FEAC47C02D00FF2602C01E086
:1056E000AFF2700C4FF0FF3823F00043CDF850C0FC
:1056F00065280CD006DC452809D046281DD047284F
:105700003DD13DE0662818D067287ED138E00021E1
:10571000112F01DB112000E0781CCDE9000106A962
:105720000EA8FFF7DDFCDDE90F010E9A03910021C1
:10573000009207F1010A04914DE04FF000400097FC
:10574000CDE9011006A90EA8FFF7CAFCDDE90F029A
:1057500003920E9B11990022DDF80CA00093049295
:1057600011B9791C00EB010AB7EB0A0004D4C0F1AF
:10577000FF3007F1010A0490AAEB0700019044E012
:10578000012F00DA01270021112F01DD112000E097
:105790003846CDE9000106A90EA8FFF7A1FCDDE916
:1057A0000F010E9A0391002104910092BA4621073D
:1057B0000CD40399514500DA8A46BAF1010F05DD90
:1057C000009AAAF10101515C302908D0B84202DAEE
:1057D00010F1040F06DA0121CDE9011015E0AAF15C
:1057E0000101E9E7002805DC049901440491AAEBD2
:1057F000000102E0411C514500DD8A460499401A2F
:10580000401C01904FF000400290200704D4019802
:10581000504501DBCDF8048000208DF84F00029840
:105820000DF14F07B0F1004F25D02B200E900298BC
:105830004FF0020800280CDA404202902D200E9012
:1058400007E00A210298FAF7D9FE3031029007F8F2
:10585000011DB8F10001A8F10108F2DC029800284E
:10586000EFD1791E0E980870307800F0200040F0DB
:10587000450007F8020D12A8C01B00F10708149894
:10588000007800B1012000EB0A01019801EBE07102
:1058900005984144401A401E0590E00306D45B463B
:1058A0002146179A059800F05DF805441498007891
:1058B00018B15A46179990476D1CE00324D55B46F2
:1058C0002146179A059800F04DF805441CE004980D
:1058D000002807DBDDE90301884203DD0098405C16
:1058E000179901E0179930205A469047049805F11E
:1058F0000105401C04900198401E019004D12E2007
:105900005A46179990476D1CBAF10001AAF1010A95
:10591000DDDC05E017F8010B5A46179990476D1C1E
:10592000B8F10001A8F10108F4DC5B462146179AA2
:105930000598ABE62D0000002B00000020000000C1
:105940002DE9F041044600251E461746880404D47C
:1059500005E039462020B0476D1C641EF9D5284665
:10596000BDE8F0812DE9F041044600251E46904631
:10597000C80301D5302700E02027880404D505E0BE
:1059800041463846B0476D1C641EF9D52846BDE82F
:10599000F081000010B56FF00400FBF7D3FD0A485A
:1059A00000680A49B0FBF1F0094908700846007820
:1059B00000EB4001C1EBC0104FF6FF7101EAC000DF
:1059C0000449088010BD00000000002000127A0089
:1059D00034000020360000200146114A12884A4354
:1059E0004FF0E0235A6100229A611A46126942F090
:1059F00001021A6100BF4FF0E022106900F00102BD
:105A00001AB100F48032002AF5D04FF0E02212697A
:105A100022F001024FF0E0231A6100229A617047E0
:105A2000360000200146114A12784A434FF0E02325
:105A30005A6100229A611A46126942F001021A6103
:105A400000BF4FF0E022106900F001021AB100F42B
:105A50008032002AF5D04FF0E022126922F00102D4
:105A60004FF0E0231A6100229A6170473400002051
:105A70002DE9FF4F85B0884691461D46DDF850B0B0
:105A8000DDF848A00026CDF80CB05F460020049059
:105A90001FE003AB3A465146484600F067F80398CA
:105AA000401C10B96FF0310617E0039A139988185B
:105AB00000F02EF9404502D06FF031060DE0039F53
:105AC0003A465146284600F029F87F1C0498401CAD
:105AD0000490159904988842DBD300BF169807609C
